{
  "contractName": "AirDrop",
  "abi": [
    {
      "inputs": [],
      "stateMutability": "nonpayable",
      "type": "constructor"
    },
    {
      "anonymous": false,
      "inputs": [
        {
          "indexed": true,
          "internalType": "address",
          "name": "from",
          "type": "address"
        },
        {
          "indexed": true,
          "internalType": "address",
          "name": "to",
          "type": "address"
        },
        {
          "indexed": false,
          "internalType": "uint256",
          "name": "tokens",
          "type": "uint256"
        }
      ],
      "name": "Transfer",
      "type": "event"
    },
    {
      "inputs": [
        {
          "internalType": "string",
          "name": "name",
          "type": "string"
        },
        {
          "internalType": "string",
          "name": "symbol",
          "type": "string"
        },
        {
          "internalType": "bytes32",
          "name": "rootHash",
          "type": "bytes32"
        },
        {
          "internalType": "uint256",
          "name": "totalSupply",
          "type": "uint256"
        },
        {
          "internalType": "uint256",
          "name": "amount",
          "type": "uint256"
        }
      ],
      "name": "deployAirdrop",
      "outputs": [],
      "stateMutability": "nonpayable",
      "type": "function"
    },
    {
      "inputs": [],
      "name": "getRootHash",
      "outputs": [
        {
          "internalType": "bytes32",
          "name": "rootHash",
          "type": "bytes32"
        }
      ],
      "stateMutability": "view",
      "type": "function",
      "constant": true
    },
    {
      "inputs": [],
      "name": "getName",
      "outputs": [
        {
          "internalType": "string",
          "name": "name",
          "type": "string"
        }
      ],
      "stateMutability": "view",
      "type": "function",
      "constant": true
    },
    {
      "inputs": [],
      "name": "getSymbol",
      "outputs": [
        {
          "internalType": "string",
          "name": "symbol",
          "type": "string"
        }
      ],
      "stateMutability": "view",
      "type": "function",
      "constant": true
    },
    {
      "inputs": [],
      "name": "getTotalSupply",
      "outputs": [
        {
          "internalType": "uint256",
          "name": "totalSupply",
          "type": "uint256"
        }
      ],
      "stateMutability": "view",
      "type": "function",
      "constant": true
    },
    {
      "inputs": [
        {
          "internalType": "address",
          "name": "participant",
          "type": "address"
        }
      ],
      "name": "checkBalance",
      "outputs": [
        {
          "internalType": "uint256",
          "name": "balance",
          "type": "uint256"
        }
      ],
      "stateMutability": "view",
      "type": "function",
      "constant": true
    },
    {
      "inputs": [
        {
          "internalType": "uint256",
          "name": "path",
          "type": "uint256"
        },
        {
          "internalType": "address",
          "name": "recipient",
          "type": "address"
        },
        {
          "internalType": "bytes32[]",
          "name": "witnesses",
          "type": "bytes32[]"
        }
      ],
      "name": "redeemToken",
      "outputs": [],
      "stateMutability": "nonpayable",
      "type": "function"
    }
  ],
  "bytecode": "0x608060405234801561001057600080fd5b5033600760006101000a81548173ffffffffffffffffffffffffffffffffffffffff021916908373ffffffffffffffffffffffffffffffffffffffff160217905550610b7c806100616000396000f3fe608060405234801561001057600080fd5b506004361061007d5760003560e01c806380759f1f1161005b57806380759f1f146101e0578063b41a0590146101fe578063c4e41b221461036e578063f2a3ebeb1461038c5761007d565b8063150704011461008257806317d7de7c146101055780635f51522614610188575b600080fd5b61008a61046e565b6040518080602001828103825283818151815260200191508051906020019080838360005b838110156100ca5780820151818401526020810190506100af565b50505050905090810190601f1680156100f75780820380516001836020036101000a031916815260200191505b509250505060405180910390f35b61010d610510565b6040518080602001828103825283818151815260200191508051906020019080838360005b8381101561014d578082015181840152602081019050610132565b50505050905090810190601f16801561017a5780820380516001836020036101000a031916815260200191505b509250505060405180910390f35b6101ca6004803603602081101561019e57600080fd5b81019080803573ffffffffffffffffffffffffffffffffffffffff1690602001909291905050506105b2565b6040518082815260200191505060405180910390f35b6101e86105fb565b6040518082815260200191505060405180910390f35b61036c600480360360a081101561021457600080fd5b810190808035906020019064010000000081111561023157600080fd5b82018360208201111561024357600080fd5b8035906020019184600183028401116401000000008311171561026557600080fd5b91908080601f016020809104026020016040519081016040528093929190818152602001838380828437600081840152601f19601f820116905080830192505050505050509192919290803590602001906401000000008111156102c857600080fd5b8201836020820111156102da57600080fd5b803590602001918460018302840111640100000000831117156102fc57600080fd5b91908080601f016020809104026020016040519081016040528093929190818152602001838380828437600081840152601f19601f820116905080830192505050505050509192919290803590602001909291908035906020019092919080359060200190929190505050610605565b005b610376610712565b6040518082815260200191505060405180910390f35b61046c600480360360608110156103a257600080fd5b8101908080359060200190929190803573ffffffffffffffffffffffffffffffffffffffff169060200190929190803590602001906401000000008111156103e957600080fd5b8201836020820111156103fb57600080fd5b8035906020019184602083028401116401000000008311171561041d57600080fd5b919080806020026020016040519081016040528093929190818152602001838360200280828437600081840152601f19601f82011690508083019250505050505050919291929050505061071c565b005b606060018054600181600116156101000203166002900480601f0160208091040260200160405190810160405280929190818152602001828054600181600116156101000203166002900480156105065780601f106104db57610100808354040283529160200191610506565b820191906000526020600020905b8154815290600101906020018083116104e957829003601f168201915b5050505050905090565b606060008054600181600116156101000203166002900480601f0160208091040260200160405190810160405280929190818152602001828054600181600116156101000203166002900480156105a85780601f1061057d576101008083540402835291602001916105a8565b820191906000526020600020905b81548152906001019060200180831161058b57829003601f168201915b5050505050905090565b6000600660008373ffffffffffffffffffffffffffffffffffffffff1673ffffffffffffffffffffffffffffffffffffffff168152602001908152602001600020549050919050565b6000600454905090565b600760009054906101000a900473ffffffffffffffffffffffffffffffffffffffff1673ffffffffffffffffffffffffffffffffffffffff163373ffffffffffffffffffffffffffffffffffffffff16146106c8576040517f08c379a000000000000000000000000000000000000000000000000000000000815260040180806020018281038252601d8152602001807f43616e206f6e6c79206265206163636573736564206279206f776e657200000081525060200191505060405180910390fd5b84600090805190602001906106de929190610a85565b5083600190805190602001906106f5929190610a85565b508260048190555081600281905550806003819055505050505050565b6000600254905090565b60001515600560008473ffffffffffffffffffffffffffffffffffffffff1673ffffffffffffffffffffffffffffffffffffffff16815260200190815260200160002060009054906101000a900460ff161515146107c5576040517f08c379a0000000000000000000000000000000000000000000000000000000008152600401808060200182810382526024815260200180610b236024913960400191505060405180910390fd5b6001600560008473ffffffffffffffffffffffffffffffffffffffff1673ffffffffffffffffffffffffffffffffffffffff16815260200190815260200160002060006101000a81548160ff0219169083151502179055506000610828836109e6565b905060005b825181101561089f57600180861614156108655761085e83828151811061085057fe5b602002602001015183610a3d565b9150610885565b6108828284838151811061087557fe5b6020026020010151610a3d565b91505b6002858161088f57fe5b049450808060010191505061082d565b506004548114610917576040517f08c379a00000000000000000000000000000000000000000000000000000000081526004018080602001828103825260118152602001807f76616c69646174696f6e206661696c656400000000000000000000000000000081525060200191505060405180910390fd5b600354600660008573ffffffffffffffffffffffffffffffffffffffff1673ffffffffffffffffffffffffffffffffffffffff168152602001908152602001600020600082825401925050819055506003546002600082825403925050819055508273ffffffffffffffffffffffffffffffffffffffff16600073ffffffffffffffffffffffffffffffffffffffff167fddf252ad1be2c89b69c2b068fc378daa952ba7f163c4a11628f55a4df523b3ef6003546040518082815260200191505060405180910390a350505050565b60008082604051602001808360ff1660f81b81526001018273ffffffffffffffffffffffffffffffffffffffff1660601b815260140192505050604051602081830303815290604052805190602001209050919050565b600060018383604051602001808460ff1660f81b8152600101838152602001828152602001935050505060405160208183030381529060405280519060200120905092915050565b828054600181600116156101000203166002900490600052602060002090601f016020900481019282601f10610ac657805160ff1916838001178555610af4565b82800160010185558215610af4579182015b82811115610af3578251825591602001919060010190610ad8565b5b509050610b019190610b05565b5090565b5b80821115610b1e576000816000905550600101610b06565b509056fe526563697069656e742068617320616c72656164792072656465656d656420746f6b656ea2646970667358221220a3128f4d6741f33cdd2269d0e6a1ad166ac8a558bb80fe5e2543de1631a9ed1f64736f6c634300060c0033",
  "immutableReferences": {},
  "source": "//SPDX-License-Identifier: MIT\n\npragma solidity ^0.6.0;\n\ncontract AirDrop {\n    \n    event Transfer(address indexed from, address indexed to, uint256 tokens);\n\n    string private _name;\n    string private _symbol;\n\n    uint256 private _totalSupply;\n    uint256 private _amount;\n\n    bytes32 private _rootHash;\n\n    mapping (address => bool) checkRedeemed;\n    mapping (address => uint256) _balances;\n\n    address private owner;\n\n    constructor() public {\n        owner = msg.sender;\n    }\n\n    function deployAirdrop (string memory name, string memory symbol, bytes32 rootHash, uint256 totalSupply, uint256 amount) external {\n        require(msg.sender == owner, \"Can only be accessed by owner\");\n        _name = name;\n        _symbol = symbol;\n        _rootHash = rootHash;\n        _totalSupply = totalSupply;\n        _amount = amount;\n    }\n\n    function leafHash(address leaf) private pure returns(bytes32) {\n        return keccak256(abi.encodePacked(uint8(0x00), leaf));\n    }\n\n    function nodeHash(bytes32 left, bytes32 right) private pure returns(bytes32) {\n        return keccak256(abi.encodePacked(uint8(0x01), left, right));\n    }\n\n    function getRootHash() external view returns(bytes32 rootHash) {\n        return _rootHash;\n    }\n\n    function getName() external view returns (string memory name) {\n        return _name;\n    }\n\n    function getSymbol() external view returns (string memory symbol) {\n        return _symbol;\n    }\n\n    function getTotalSupply() external view returns (uint256 totalSupply) {\n        return _totalSupply;\n    }\n\n    function checkBalance(address participant) external view returns(uint256 balance){\n        return _balances[participant];\n    }\n\nfunction redeemToken(uint256 path, address recipient, bytes32[] memory witnesses) external {\n\n        require(checkRedeemed[recipient] == false, \"Recipient has already redeemed token\");\n        checkRedeemed[recipient] = true;\n\n        // Compute the merkle root\n        bytes32 validator = leafHash(recipient);\n        for (uint i; i < witnesses.length; i++) {\n              if ((path & 0x01) == 1) {\n                validator = nodeHash(witnesses[i], validator);\n            } \n           else {\n                validator = nodeHash(validator, witnesses[i]);\n            }\n            path /= 2;\n        }\n        // Check the merkle proof\n        require(validator == _rootHash, \"validation failed\");\n\n        // Redeem!\n        _balances[recipient] += _amount;\n        _totalSupply -= _amount;\n\n        emit Transfer(address(0), recipient, _amount);\n    }\n}",
  "sourcePath": "/Users/malhar197/Desktop/Advanced_Smart_Contracts/individual_project/contracts/Airdrop.sol",
  "compiler": {
    "name": "solc",
    "version": "0.6.12+commit.27d51765.Emscripten.clang"
  },
  "schemaVersion": "3.1.0",
  "updatedAt": "2020-08-01T09:53:13.495Z",
  "networkType": "ethereum",
  "devdoc": {
    "kind": "dev",
    "methods": {},
    "version": 1
  },
  "userdoc": {
    "kind": "user",
    "methods": {},
    "version": 1
  }
}