{
  "contractName": "Voting",
  "abi": [
    {
      "inputs": [
        {
          "internalType": "string",
          "name": "name",
          "type": "string"
        },
        {
          "internalType": "string",
          "name": "symbol",
          "type": "string"
        },
        {
          "internalType": "bytes32",
          "name": "rootHash",
          "type": "bytes32"
        },
        {
          "internalType": "uint256",
          "name": "totalSupply",
          "type": "uint256"
        },
        {
          "internalType": "uint256",
          "name": "amount",
          "type": "uint256"
        }
      ],
      "stateMutability": "nonpayable",
      "type": "constructor"
    },
    {
      "anonymous": false,
      "inputs": [
        {
          "indexed": true,
          "internalType": "address",
          "name": "from",
          "type": "address"
        },
        {
          "indexed": true,
          "internalType": "address",
          "name": "to",
          "type": "address"
        },
        {
          "indexed": false,
          "internalType": "uint256",
          "name": "tokens",
          "type": "uint256"
        }
      ],
      "name": "Transfer",
      "type": "event"
    },
    {
      "inputs": [],
      "name": "getName",
      "outputs": [
        {
          "internalType": "string",
          "name": "name",
          "type": "string"
        }
      ],
      "stateMutability": "view",
      "type": "function"
    },
    {
      "inputs": [],
      "name": "getSymbol",
      "outputs": [
        {
          "internalType": "string",
          "name": "symbol",
          "type": "string"
        }
      ],
      "stateMutability": "view",
      "type": "function"
    },
    {
      "inputs": [],
      "name": "getTotalSupply",
      "outputs": [
        {
          "internalType": "uint256",
          "name": "totalSupply",
          "type": "uint256"
        }
      ],
      "stateMutability": "view",
      "type": "function"
    },
    {
      "inputs": [
        {
          "internalType": "uint256",
          "name": "path",
          "type": "uint256"
        },
        {
          "internalType": "address",
          "name": "recipient",
          "type": "address"
        },
        {
          "internalType": "bytes32[]",
          "name": "witnesses",
          "type": "bytes32[]"
        }
      ],
      "name": "redeemToken",
      "outputs": [],
      "stateMutability": "nonpayable",
      "type": "function"
    }
  ],
  "bytecode": "0x608060405234801561001057600080fd5b506040516109cf3803806109cf833981810160405260a081101561003357600080fd5b810190808051604051939291908464010000000082111561005357600080fd5b8382019150602082018581111561006957600080fd5b825186600182028301116401000000008211171561008657600080fd5b8083526020830192505050908051906020019080838360005b838110156100ba57808201518184015260208101905061009f565b50505050905090810190601f1680156100e75780820380516001836020036101000a031916815260200191505b506040526020018051604051939291908464010000000082111561010a57600080fd5b8382019150602082018581111561012057600080fd5b825186600182028301116401000000008211171561013d57600080fd5b8083526020830192505050908051906020019080838360005b83811015610171578082015181840152602081019050610156565b50505050905090810190601f16801561019e5780820380516001836020036101000a031916815260200191505b5060405260200180519060200190929190805190602001909291908051906020019092919050505084600090805190602001906101dc929190610213565b5083600190805190602001906101f3929190610213565b5082600481905550816002819055508060038190555050505050506102b0565b828054600181600116156101000203166002900490600052602060002090601f016020900481019282601f1061025457805160ff1916838001178555610282565b82800160010185558215610282579182015b82811115610281578251825591602001919060010190610266565b5b50905061028f9190610293565b5090565b5b808211156102ac576000816000905550600101610294565b5090565b610710806102bf6000396000f3fe608060405234801561001057600080fd5b506004361061004c5760003560e01c8063150704011461005157806317d7de7c146100d4578063c4e41b2214610157578063f2a3ebeb14610175575b600080fd5b610059610257565b6040518080602001828103825283818151815260200191508051906020019080838360005b8381101561009957808201518184015260208101905061007e565b50505050905090810190601f1680156100c65780820380516001836020036101000a031916815260200191505b509250505060405180910390f35b6100dc6102f9565b6040518080602001828103825283818151815260200191508051906020019080838360005b8381101561011c578082015181840152602081019050610101565b50505050905090810190601f1680156101495780820380516001836020036101000a031916815260200191505b509250505060405180910390f35b61015f61039b565b6040518082815260200191505060405180910390f35b6102556004803603606081101561018b57600080fd5b8101908080359060200190929190803573ffffffffffffffffffffffffffffffffffffffff169060200190929190803590602001906401000000008111156101d257600080fd5b8201836020820111156101e457600080fd5b8035906020019184602083028401116401000000008311171561020657600080fd5b919080806020026020016040519081016040528093929190818152602001838360200280828437600081840152601f19601f8201169050808301925050505050505091929192905050506103a5565b005b606060018054600181600116156101000203166002900480601f0160208091040260200160405190810160405280929190818152602001828054600181600116156101000203166002900480156102ef5780601f106102c4576101008083540402835291602001916102ef565b820191906000526020600020905b8154815290600101906020018083116102d257829003601f168201915b5050505050905090565b606060008054600181600116156101000203166002900480601f0160208091040260200160405190810160405280929190818152602001828054600181600116156101000203166002900480156103915780601f1061036657610100808354040283529160200191610391565b820191906000526020600020905b81548152906001019060200180831161037457829003601f168201915b5050505050905090565b6000600254905090565b60001515600560008473ffffffffffffffffffffffffffffffffffffffff1673ffffffffffffffffffffffffffffffffffffffff16815260200190815260200160002060009054906101000a900460ff1615151461044e576040517f08c379a00000000000000000000000000000000000000000000000000000000081526004018080602001828103825260248152602001806106b76024913960400191505060405180910390fd5b600061045933610617565b905060005b82518110156104d057600180861614156104965761048f83828151811061048157fe5b60200260200101518361066e565b91506104b6565b6104b3828483815181106104a657fe5b602002602001015161066e565b91505b600285816104c057fe5b049450808060010191505061045e565b506004548114610548576040517f08c379a00000000000000000000000000000000000000000000000000000000081526004018080602001828103825260118152602001807f76616c69646174696f6e206661696c656400000000000000000000000000000081525060200191505060405180910390fd5b600354600660008573ffffffffffffffffffffffffffffffffffffffff1673ffffffffffffffffffffffffffffffffffffffff168152602001908152602001600020600082825401925050819055506003546002600082825403925050819055508273ffffffffffffffffffffffffffffffffffffffff16600073ffffffffffffffffffffffffffffffffffffffff167fddf252ad1be2c89b69c2b068fc378daa952ba7f163c4a11628f55a4df523b3ef6003546040518082815260200191505060405180910390a350505050565b60008082604051602001808360ff1660f81b81526001018273ffffffffffffffffffffffffffffffffffffffff1660601b815260140192505050604051602081830303815290604052805190602001209050919050565b600060018383604051602001808460ff1660f81b815260010183815260200182815260200193505050506040516020818303038152906040528051906020012090509291505056fe526563697069656e742068617320616c72656164792072656465656d656420746f6b656ea2646970667358221220d790bc914ce9434f1cb88d41db3ba3b6e19c85e0bd1f13b9ff290aaa2f4383c564736f6c634300060c0033",
  "immutableReferences": {},
  "source": "//SPDX-License-Identifier: MIT\n\npragma solidity ^0.6.0;\n\ncontract Voting {\n    \n    event Transfer(address indexed from, address indexed to, uint256 tokens);\n\n    string _name;\n    string _symbol;\n\n    uint256 _totalSupply;\n    uint256 _amount;\n\n    bytes32 _rootHash;\n\n    mapping (address => bool) checkRedeemed;\n    mapping (address => uint256) _balances;\n\n    constructor(string memory name, string memory symbol, bytes32 rootHash, uint256 totalSupply, uint256 amount) public {\n        _name = name;\n        _symbol = symbol;\n        _rootHash = rootHash;\n        _totalSupply = totalSupply;\n        _amount = amount;\n    }\n\n    function leafHash(address leaf) private pure returns(bytes32) {\n        return keccak256(abi.encodePacked(uint8(0x00), leaf));\n    }\n\n    function nodeHash(bytes32 left, bytes32 right) private pure returns(bytes32) {\n        return keccak256(abi.encodePacked(uint8(0x01), left, right));\n    }\n\n    function getName() public view returns (string memory name) {\n        return _name;\n    }\n\n    function getSymbol() public view returns (string memory symbol) {\n        return _symbol;\n    }\n\n    function getTotalSupply() public view returns (uint256 totalSupply) {\n        return _totalSupply;\n    }\n\nfunction redeemToken(uint256 path, address recipient, bytes32[] memory witnesses) public {\n\n        require(checkRedeemed[recipient] == false, \"Recipient has already redeemed token\");\n\n        // Compute the merkle root\n        bytes32 validator = leafHash(msg.sender);\n        for (uint i = 0; i < witnesses.length; i++) {\n              if ((path & 0x01) == 1) {\n                validator = nodeHash(witnesses[i], validator);\n            } \n           else {\n                validator = nodeHash(validator, witnesses[i]);\n            }\n            path /= 2;\n        }\n        // Check the merkle proof\n        require(validator == _rootHash, \"validation failed\");\n\n        // Redeem!\n        _balances[recipient] += _amount;\n        _totalSupply -= _amount;\n\n        emit Transfer(address(0), recipient, _amount);\n    }\n}",
  "sourcePath": "/Users/malhar197/Desktop/Advanced_Smart_Contracts/individual_project/contracts/Merkle-Airdrop.sol",
  "compiler": {
    "name": "solc",
    "version": "0.6.12+commit.27d51765.Emscripten.clang"
  },
  "schemaVersion": "3.1.0",
  "updatedAt": "2020-08-01T06:30:14.230Z",
  "devdoc": {
    "kind": "dev",
    "methods": {},
    "version": 1
  },
  "userdoc": {
    "kind": "user",
    "methods": {},
    "version": 1
  }
}